:020000040800F2
:10000000180400209D010008C9020008C102000870
:10001000C5020008E5010008CB0900080000000047
:10002000000000000000000000000000A50400081F
:10003000E90100080000000059030008B5010008AC
:10004000B7010008B7010008B7010008B7010008B0
:10005000B7010008B7010008B7010008B7010008A0
:10006000B7010008B7010008B7010008B701000890
:10007000B7010008B7010008B7010008B701000880
:10008000B7010008B7010008B7010008B701000870
:10009000B7010008B7010008B7010008B701000860
:1000A000B7010008B7010008B7010008B701000850
:1000B000B7010008B7010008B7010008B701000840
:1000C000B7010008B7010008B7010008B701000830
:1000D000B7010008C1060008B7010008B50700080D
:1000E000B7010008B7010008B7010008B701000810
:1000F000B7010008B7010008B7010008B701000800
:10010000B7010008B7010008B7010008B7010008EF
:10011000B7010008B7010008B7010008B7010008DF
:10012000B7010008B7010008B7010008B7010008CF
:10013000B7010008B7010008B7010008B7010008BF
:10014000B7010008B7010008B7010008B7010008AF
:10015000B7010008B7010008B7010008B70100089F
:10016000B7010008B7010008B7010008B70100088F
:10017000B7010008B7010008B7010008B70100087F
:10018000B7010008B7010008DFF80CD000F018F83C
:1001900000480047390B0008180400200648804733
:1001A00006480047FEE7FEE7FEE7FEE7FEE7FEE75C
:1001B000FEE7FEE7FEE7FEE7A90500088901000863
:1001C000064C074D06E0E06840F0010394E80700A4
:1001D00098471034AC42F6D3FFF7DAFF4C0B000817
:1001E0006C0B000800BFFEE77047F0B50A4600211F
:1001F0000023002400BF3DE0012505FA01F3156846
:1002000005EA03049C4234D105684F000326BE4032
:10021000B543056015794E00B54006683543056065
:100220001579012D02D01579022D16D185684F0060
:100230000326BE40B543856055794E00B5408668BB
:1002400035438560456801268E40B5434560456865
:1002500096798E40B6B235434560C5684F00032697
:10026000BE40B543C560D5794E00B540C66835433C
:10027000C560491C1029BFD3F0BDF0B50023002490
:100280004D07ED0E02FA05F3CE1000F1200555F8EA
:1002900026504E07F70E0F26BE40B543CF1000F193
:1002A000200646F82750CE1000F1200555F82650BC
:1002B00045EA0304CE1000F1200545F82640F0BDC4
:1002C00000BFFEE700BFFEE77047000070B50021E9
:1002D00000230F22C4781CB3174C246804F4E06494
:1002E000C4F5E064C4F30721C1F10404E3B20A4198
:1002F00044789C40E1B28478144021430C07210EDD
:100300000E4C05786155047804F01F050124AC40BB
:1003100005786D11AD0005F1E025C5F8004109E053
:10032000047804F01F050124AC40054D06787611D1
:1003300045F8264070BD00000CED00E000E400E050
:1003400080E100E002490143024A11607047000069
:100350000000FA050CED00E07047000029B1064AE4
:1003600012680243044B1A6004E0034A1268824395
:10037000014B1A60704700003038024029B1064A2C
:1003800012680243044B1A6004E0034A1268824375
:10039000014B1A60704700004038024029B1064AFC
:1003A00012680243044B1A6004E0034A1268824355
:1003B000014B1A607047000044380240F0B500213C
:1003C00000220024022500260223324F3F6807F056
:1003D0000C0121B1042905D0082937D105E02E4FA1
:1003E000076036E02D4F076033E02A4F3F1F3F681C
:1003F000C7F38056274F3F1F3F6807F03F036EB19A
:10040000264FB7FBF3F7DFF88CC0ACF1040CDCF837
:1004100000C0CCF3881C07FB0CF40CE01E4FB7FBAC
:10042000F3F7DFF870C0ACF1040CDCF800C0CCF3DB
:10043000881C07FB0CF4174F3F1F3F68C7F30147A9
:100440007F1C7D00B4FBF5F7076002E0124F0760E8
:1004500000BF00BF0F4F3F6807F0F0010909104FC0
:100460007A5C0768D74047600A4F3F6807F4E0515D
:10047000890A0B4F7A5C4768D7408760054F3F6811
:1004800007F46041490B064F7A5C4768D740C76064
:10049000F0BD0000083802400024F40000127A0089
:1004A00008000020704700000CB50020019000906B
:1004B0003448006840F480303249086000BF314859
:1004C000006800F4003000900198401C01900098F2
:1004D00018B90198B0F5A06FF1D12A48006800F46E
:1004E000003010B10120009001E000200090009841
:1004F000012846D123484030006840F0805021490F
:10050000403108602048006840F480401E4908607F
:100510001C48083000681B4908310860084600681C
:1005200040F4004008600846006840F4A0500860AD
:100530001648091F0860081F006840F08070091FF6
:10054000086000BF0F48006800F000700028F9D074
:1005500040F205600E4908600A480830006820F043
:1005600003000849083108600846006840F00200AE
:10057000086000BF03480830006800F00C0008283D
:10058000F8D10CBD0038024000700040085440070C
:10059000003C024010B500F03BF800F0B1F84FF419
:1005A000A060FFF7CFFE10BD10B51548006840F4FD
:1005B0007000134908601348006840F001001149B9
:1005C000086000200F49083108600E4800680E4995
:1005D00008400C4908600D48091D0860081F0068A4
:1005E00020F48020091F0860002006490C310860B3
:1005F000FFF75AFF4FF0006001498039086010BDD5
:1006000088ED00E000380240FFFFF6FE10300024C5
:1006100000B587B001210220FFF7A0FE01211020C4
:10062000FFF7BCFE072206212348FFF726FE07221C
:1006300011462148FFF721FEC020019002208DF8CD
:10064000080000208DF80A0002208DF80900002023
:100650008DF80B0001A91848FFF7C7FD4FF4E130F2
:1006600003900020ADF81000ADF81200ADF81400B2
:100670000C20ADF816000020ADF8180003A90F48B3
:1006800000F030F9012240F225510C4800F004F945
:1006900001210A4800F0BDF825208DF80000032054
:1006A0008DF801008DF8020001208DF803006846E6
:1006B000FFF70CFE07B000BD00040240001001402F
:1006C00010B540F225510B4800F0BCF888B140F25B
:1006D0002551084800F08EF8064800F06DF90649EB
:1006E0000870012000F02CFA0348017803A000F004
:1006F0006FF910BD001001400000002025630000CC
:1007000000B587B001210220FFF728FE01218804EF
:10071000FFF734FE07220A212448FFF7AEFD072227
:100720000B212248FFF7A9FD4FF440600190022001
:100730008DF8080000208DF80A0002208DF80900CD
:1007400000208DF80B0001A91848FFF74EFD4FF46B
:10075000E13003900020ADF81000ADF81200ADF8C4
:1007600014000C20ADF816000020ADF8180003A905
:100770000F4800F0B7F8012240F225510C4800F074
:100780008BF801210A4800F044F827208DF800007A
:1007900003208DF8010002208DF8020001208DF861
:1007A00003006846FFF792FD07B000BD0004024059
:1007B0000048004010B540F225510B4800F042F8C7
:1007C00088B140F22551084800F014F8064800F0BE
:1007D000F3F806490870032000F0B2F903480178E5
:1007E00003A000F0F5F810BD004800400000002014
:1007F0002563000010B50022002340F66A14A142D0
:1008000000D100BF0A1201249440A3B2DC4304804B
:1008100010BD21B1828942F40052828104E08289B4
:100820004DF6FF731A408281704702460020B1F5F1
:10083000007F00D100BF13880B400BB1012000E006
:100840000020704770B502460024002300250020D8
:1008500040F66A16B14200D100BFC1F3421501F063
:100860001F03012606FA03F3012D02D196893340B6
:1008700006E0022D02D1168A334001E0968A334009
:100880000C12012606FA04F41688344013B10CB198
:10089000012000E0002070BDF0B5034600240026D2
:1008A0000025002040F66A17B94200D100BF184663
:1008B000C1F3421401F01F06012707FA06F5012CC7
:1008C00001D10C3004E0022C01D1103000E01430D2
:1008D0001AB107682F43076002E00768AF4307605B
:1008E000F0BD00002DE9FF4705460E460024A14655
:1008F00000BFA046B08900B100BF2C8A24F4405448
:10090000F08804432C82AC8941F20C608443B088A7
:1009100031890843718908430443AC81AC8A24F4CB
:100920004074B0890443AC826846FFF747FD204815
:10093000854202D01F48854202D1DDF80C9001E0CB
:10094000DDF80890A88900F4004040B109EBC90027
:1009500000EB091031684900B0FBF1F707E009EB43
:10096000C90000EB091031688900B0FBF1F7642081
:10097000B7FBF0F004012009642101FB1078A8897D
:1009800000F4004040B1322000EBC800B0FBF1F0B1
:1009900000F00700044308E0322000EB0810642157
:1009A000B0FBF1F000F00F0004432C81BDE8FF879D
:1009B000001001400014014001468888C0F308007F
:1009C0007047C1F308028280704700BFFEE7000055
:1009D0000FB4054B10B503A9044A029800F017F8AC
:1009E00010BC5DF814FB0000E50A000804000020BC
:1009F00002E008C8121F08C1002AFAD170477047E8
:100A0000002001E001C1121F002AFBD170472DE92F
:100A1000F84F9946924688460546002706E0252865
:100A20000AD051464A4690476D1C7F1C2878002802
:100A3000F5D13846BDE8F88F002315F8011F184698
:100A40002E2915D115F8011F04232A290DD06FF086
:100A50002F022978A1F13004092C09D800EB80007D
:100A600002EB400008446D1CF3E758F8040B6D1CC2
:100A70002A78002ADDD0632A07D0732A0FD01046C7
:100A800051464A4690477F1C2AE018F8042B8DF8FF
:100A9000002000218DF801106E46012103E058F876
:100AA000046B4FF0FF315A074FF0000401D409E006
:100AB000641C84420BDA8C42FADB325D002AF7D1E7
:100AC00005E0641C8C42FCDB305D0028F9D1274432
:100AD00004E016F8010B51464A469047641EF8D2CE
:100AE0006D1CA3E770B504460D4610480078012838
:100AF0000BD100BF40210E48FFF797FE0028F9D028
:100B0000E1B20B48FFF75DFF0EE0084800780328CC
:100B10000AD100BF40210748FFF787FE0028F9D01F
:100B2000E1B20448FFF74DFF204670BD01000020F0
:100B30000010014000480040FFF72CFD00BFFEE719
:100B4000014A107070470000010000206C0B000883
:100B50000000002018000000F0090008840B0008C5
:100B60001800002000040000000A00080000000037
:100B70000000000000000000010203040102030461
:040B80000607080953
:040000050800018965
:00000001FF
