:020000040800F2
:1000000028B001209D0100088B0600088306000827
:100010008706000811020008171A000800000000F7
:10002000000000000000000000000000E5130008D0
:10003000150400080000000019070008B5010008B9
:10004000B7010008B7010008B7010008B7010008B0
:10005000B7010008B7010008B7010008B7010008A0
:10006000B7010008B7010008B7010008B701000890
:10007000B7010008B7010008B7010008B701000880
:10008000B7010008B7010008B7010008B701000870
:10009000B7010008B7010008B7010008B701000860
:1000A000B7010008B7010008B7010008B701000850
:1000B000B7010008B7010008B7010008B701000840
:1000C000B7010008B7010008B7010008B701000830
:1000D000B70100083D1600082D1700080118000898
:1000E000B7010008B7010008B7010008B701000810
:1000F000B7010008B7010008B7010008B701000800
:10010000B7010008AD090008B7010008B7010008F1
:10011000B7010008B7010008B7010008B7010008DF
:10012000B7010008B7010008B7010008B7010008CF
:10013000B7010008B7010008B7010008B7010008BF
:10014000B7010008B7010008B7010008B7010008AF
:10015000B7010008B7010008B7010008B70100089F
:10016000B7010008B7010008B7010008B70100088F
:10017000B7010008B7010008B7010008B70100087F
:10018000B7010008B7010008DFF80CD000F02EF826
:10019000004800471D1D000828B001200648804780
:1001A00006480047FEE7FEE7FEE7FEE7FEE7FEE75C
:1001B000FEE7FEE7FEE7FEE72515000889010008D7
:1001C00030B50B46014600202022012409E021FA27
:1001D00002F59D4205D303FA02F5491B04FA02F524
:1001E0002844151EA2F10102F1DC30BD064C074D7A
:1001F00006E0E06840F0010394E8070098471034F7
:10020000AC42F6D3FFF7C4FFBC1F0008DC1F000898
:1002100000BFFEE770B500254FF4803404E0802075
:1002200000F0B0FB00B103E02000A4F10104F6D11E
:1002300000BF0CB9032070BD40F2FF5000F078FB06
:100240002846F8E770B5044605E01648056805F04D
:10025000450000B100E0F8E700BF042000F092FB89
:1002600020B1042000F064FB032070BD012000F0E9
:1002700089FB20B1012000F05BFB0120F5E7094874
:1002800024380068A04201D01020EEE740F2FF5071
:1002900000F04EFB03482038006808210840C0B237
:1002A000E3E70000342C014070B500264FF48035A0
:1002B00005E01148046804F0450000B103E028009F
:1002C000A5F10105F5D100BF15B104F0040028B176
:1002D0000326042000F02CFB304670BD012000F006
:1002E00051FB18B10126012000F022FB40F2FF5023
:1002F00000F01EFB3046F0E7342C014010B505E05D
:100300000B48046804F0450000B100E0F8E700BFC6
:10031000042000F037FB20B1042000F009FB03208B
:1003200010BD40F2FF5000F003FB0020F8E7000092
:10033000342C01402DE9F04105460E464FF00008EF
:1003400005E02048076807F0450000B100E0F8E745
:1003500000BF042000F016FB28B1042000F0E8FAEA
:100360000320BDE8F081012000F00CFB20B101204A
:1003700000F0DEFA0120F4E7124824380068A842B1
:1003800001D01020EDE740F2FF5000F0D1FA0D4807
:100390002038046804F4604018B9200C30804046CE
:1003A000DFE704F4005008B11320DAE704F48040DA
:1003B00008B11020D5E704F4004008B10F20D0E7C1
:1003C0004046CEE7342C014070B500264FF480350E
:1003D00005E00F48046804F0450000B103E0280080
:1003E000A5F10105F5D100BF15B104F0040028B155
:1003F0000326042000F09CFA304670BD04F0400053
:1004000018B10026402000F093FA3046F5E70000CE
:10041000342C0140704700002DE9FC4107460D4691
:100420000026002400200090019008205B4908600D
:1004300010204860402088600020C8604FF4806031
:100440000861084600F0EAFA1020FFF7FBFE0446B8
:1004500014B12046BDE8FC815148008800044F4992
:10046000086037204860402088600020C8604FF452
:1004700080600861084600F0D1FA3720FFF7E2FEFD
:1004800004460CB12046E5E74FF0FF3045490860CF
:1004900008204860302088600220C8600020086181
:1004A00001204861084600F053FA00203B490860EB
:1004B00033204860402088600020C8604FF480608E
:1004C0000861084600F0AAFA3320FFF7BBFE044695
:1004D0000CB12046BEE70CE04FF4001000F052FAD9
:1004E00038B1314800684DF82600761C022E00D342
:1004F00007E02D484C38006840F22A610840002887
:10050000EAD000BF082000F03DFA20B1082000F03A
:100510000FFA04209EE7022000F034FA20B10220F6
:1005200000F006FA022095E7202000F02BFA20B117
:10053000202000F0FDF906208CE74FF4007000F059
:1005400021FA28B14FF4007000F0F2F9072081E79A
:1005500040F2FF5000F0ECF900980006009901F419
:100560007F4140EA0120009901F47F0140EA112017
:10057000009940EA1160686001980006019901F451
:100580007F4140EA0120019901F47F0140EA1120F6
:10059000019940EA1160286020465BE780A90120AC
:1005A0004800002094A90120802C0140F0B50A46A3
:1005B00000210023002400BF3DE0012505FA01F3DE
:1005C000156805EA03049C4234D105684F000326F0
:1005D000BE40B543056015794E00B5400668354309
:1005E00005601579012D02D01579022D16D1856887
:1005F0004F000326BE40B543856055794E00B54097
:10060000866835438560456801268E40B543456060
:10061000456896798E40B6B235434560C5684F004F
:100620000326BE40B543C560D5794E00B540C668C7
:100630003543C560491C1029BFD3F0BDF0B5002378
:1006400000244D07ED0E02FA05F3CE1000F120054F
:1006500055F826504E07F70E0F26BE40B543CF1073
:1006600000F1200646F82750CE1000F1200555F87D
:10067000265045EA0304CE1000F1200545F8264037
:10068000F0BD00BFFEE700BFFEE7704770B5002178
:1006900000230F22C4781CB3174C246804F4E064D0
:1006A000C4F5E064C4F30721C1F10404E3B20A41D4
:1006B00044789C40E1B28478144021430C07210E19
:1006C0000E4C05786155047804F01F050124AC40F8
:1006D00005786D11AD0005F1E025C5F8004109E090
:1006E000047804F01F050124AC40054D067876110E
:1006F00045F8264070BD00000CED00E000E400E08D
:1007000080E100E002490143024A116070470000A5
:100710000000FA050CED00E07047000029B1064A20
:1007200012680243044B1A6004E0034A12688243D1
:10073000014B1A60704700003038024029B1064A68
:1007400012680243044B1A6004E0034A12688243B1
:10075000014B1A60704700004038024029B1064A38
:1007600012680243044B1A6004E0034A1268824391
:10077000014B1A60704700004438024029B1064A14
:1007800012680243044B1A6004E0034A1268824371
:10079000014B1A607047000024380240F0B5002178
:1007A00000220024022500260223324F3F6807F072
:1007B0000C0121B1042905D0082937D105E02E4FBD
:1007C000076036E02D4F076033E02A4F3F1F3F6838
:1007D000C7F38056274F3F1F3F6807F03F036EB1B6
:1007E000264FB7FBF3F7DFF88CC0ACF1040CDCF854
:1007F00000C0CCF3881C07FB0CF40CE01E4FB7FBC9
:10080000F3F7DFF870C0ACF1040CDCF800C0CCF3F7
:10081000881C07FB0CF4174F3F1F3F68C7F30147C5
:100820007F1C7D00B4FBF5F7076002E0124F076004
:1008300000BF00BF0F4F3F6807F0F0010909104FDC
:100840007A5C0768D74047600A4F3F6807F4E05179
:10085000890A0B4F7A5C4768D7408760054F3F682D
:1008600007F46041490B064F7A5C4768D740C76080
:10087000F0BD0000083802400024F40000127A00A5
:10088000540000207CB50546002400200090019013
:1008900000260DB1022600E000262248006800F084
:1008A000007008B10E207CBD1F49098888B26946D6
:1008B000FFF7B2FD04460CB12046F4E7019800F4BE
:1008C000802060B318480088000418490860372069
:1008D0004860402088600020C8604FF48060086154
:1008E000084600F09BF83720FFF7ACFC04460CB13B
:1008F0002046D8E70D48066006200C494860402095
:1009000088600020C8604FF480600861084600F0ED
:1009100085F80620FFF796FC04462046C3E725200D
:10092000C1E70000142C01404800002080A90120EC
:100930000149086070470000382C01400146034A15
:10094000106820F0FF00084310607047042C01403D
:1009500000210B4B02681A601B1D42681A601A1DA9
:10096000116821F0F701D0E902231A4303691A4301
:1009700043691A431143024A08321160704700006C
:10098000242C014001460020034A12680A400AB1A3
:10099000012000E000207047342C0140024800682C
:1009A00000F0030070470000002C014010B500F07B
:1009B0004BFC10BD00210A4A116847F6FF629143C3
:1009C000027D83681A4343681A43C3681A43036865
:1009D0001A4303691A431143014A1160704700002A
:1009E000042C014000200B490860091D0860091D06
:1009F0000860091D0860074924310860091D086066
:100A0000091D086004480349383108600020091DA9
:100A100008607047002C0140FF07C0000021094B0F
:100A200002681A601A1D11686FF30A01D0E90123E8
:100A30001A43C3681A4303691A431143014A121D3A
:100A400011607047082C01400149086070470000A0
:100A5000002C014070B50446002516480078032894
:100A600002D12725284670BD1248007838B11148B8
:100A70000078012803D00F480078022817D1B4F578
:100A8000805F02D127252846EDE7E0B2FFF7FAFEA6
:100A9000054665B90848006820F4C050064908605A
:100AA0000846006820430860084600680860284639
:100AB000D9E7000044000020042C0140F0B50146B5
:100AC00000200022BE4B1B7881F85630BD4B1B889E
:100AD000A1F85430BC4B1B681A0E93090B70C2F37B
:100AE00083034B7002F003038B70B74B1B68C3F397
:100AF0000742CA70B44B1B88C3F307220A71B24B7A
:100B00001A784A715B681A0E1301CB80AE4B5B6892
:100B1000C3F30742CB8843EA1213CB8002F00F03E2
:100B20000B72A94B9B88C3F30722D3094B72C2F304
:100B300080138B72C2F34013CB72C2F300130B739A
:100B400000234B739E4B1B783BB19D4B1B78012BB5
:100B500003D09B4B1B78032B4FD193071B0D0B61CD
:100B6000994B1A790B6943EA82030B61964B9B6898
:100B70001A0E0B6943EA92130B61C2F3C2030B75A1
:100B800002F007034B75904B9B68C3F30742530970
:100B90008B75C2F38203CB7593075B0F0B768A4B81
:100BA0001B89C3F307220B7E43EAD2130B760B6932
:100BB0005B1C0024C1E912340B7E9B1C012404FA47
:100BC00003F3DC17D1E91256A5FB037C06FB03C334
:100BD00005FB0433C1E912730C7A0123A3400B65B2
:100BE0000024D1E912650B6DA6FB037C05FB03C352
:100BF00006FB0433C1E912732EE0714B1B78022B04
:100C00002AD1714B1A7993069B0A0B616E4B9B6834
:100C10001A0E0B6943EA02230B616B4B9B68C3F30B
:100C200007420B6913430B61674B1B89C3F3072210
:100C30000B695B1C4FF40074A3FB04464FF4806304
:100C40000025A4FB037C06FB03C304FB0533C1E9B9
:100C500012734FF400730B65C2F3801301F8193F50
:100C600093065B0E4B70584B1A7A4B7843EAD213BB
:100C70004B7002F07F038B70534BDB681A0ED30965
:100C8000CB70C2F341130B71C2F382034B71930714
:100C90001B0F8B714C4BDB68C3F307428B7943EA24
:100CA00092138B71C2F34013CB7100230B7202F0CD
:100CB00001034B72444B9B89C3F30722D3098B7208
:100CC000C2F38013CB72C2F340130B73C2F3001351
:100CD0004B73C2F381038B7302F00303CB733A4B64
:100CE0001A7B53080B7401234B74384B1B681A0E84
:100CF000CA741939354B1B68C3F307421402CC85FB
:100D0000324B1B88C3F30722CB8D1343CB852F4B6C
:100D10001A7814060C635B681A0E0B6B43EA0244E4
:100D20000C632A4B5B68C3F307420B6B43EA022454
:100D30000C63264B9B88C3F307220B6B13430B6397
:100D4000224B1A7934235A54204B9B681A0E3523B0
:100D50005A541E4B9B68C3F3074214068C631B4B0B
:100D60001B89C3F307228B6B43EA02448C63174B46
:100D70001A7A8B6B43EA02248C63144BDB681A0EDD
:100D80008B6B13438B63114BDB68C3F307423C232C
:100D90005B5C43EA12143C235C5413071C0DCC87A4
:100DA0000A4B9B89C3F30722CB8F1343CB87074B97
:100DB0001A7B540840235C54012441235C54F0BD49
:100DC0004400002048000020ACA90120BCA901205B
:100DD0003EB50024002501214448FFF79FFC012176
:100DE000C802FFF7BBFC0121C802FFF7C7FC4FF4A4
:100DF000F850019002208DF808008DF809000020BD
:100E00008DF80A0001208DF80B0001A93848FFF782
:100E1000CDFB0420019001A93648FFF7C7FB0C2247
:100E200008213348FFF70AFC0C2209213048FFF75C
:100E300005FC0C220A212E48FFF700FC0C220B2196
:100E40002B48FFF7FBFB0C2211462948FFF7F6FB66
:100E50000C2202212748FFF7F1FB00214FF400602C
:100E6000FFF78CFCFFF7BEFD31208DF8000000205D
:100E70008DF801008DF8020001208DF8030068460E
:100E8000FFF704FC00F0EEF8044614B900F038F85F
:100E900004461CB91848FFF711FE044634B9164938
:100EA000B1F85410080400F079FA044624B94FF45C
:100EB0000060FFF7CFFD04461CB1104800780328FE
:100EC00012D10D4890F8560020B10B4890F856000A
:100ED000012801D1022500E000252846FFF72EFD5C
:100EE000002000F073FA044620463EBD0C0040008E
:100EF00000080240000C0240D0A90120440000205C
:100F000038B5002401200090FFF748FD10B92524D2
:100F1000204638BD4D480078042824D000204C4994
:100F2000086002204860C02088600020C8604FF43C
:100F3000806008610846FFF771FDFFF7B5F90446C8
:100F40000CB12046E5E74348006843490860414842
:100F5000001D006848603F480830006888603D48D0
:100F60000C300068C8603948007858B137480078BC
:100F7000012807D035480078062803D03348007888
:100F8000022816D100203249086003204860402022
:100F900088600020C8604FF4806008610846FFF751
:100FA0003DFD69460320FFF7C5F904460CB1204614
:100FB000AFE726480078032816D1BDF800000004EA
:100FC0002349086003204860402088600020C860F2
:100FD0004FF4806008610846FFF720FDFFF764F9D1
:100FE00004460CB1204694E71848007804282AD01B
:100FF000BDF8000019490860BDF80000000414495C
:10100000086009204860C02088600020C8604FF454
:10101000806008610846FFF701FDFFF745F90446C7
:101020000CB1204675E70B4800680D490860094877
:10103000001D00684860074808300068886005485F
:101040000C300068C860002063E700004400002006
:1010500080A90120142C0140BCA9012048000020D7
:10106000ACA901202DE9F047002700240026002527
:10107000A046A14676206E490875002008604860A9
:101080008860C86008610846FFF794FC0320FFF7FA
:10109000DBFC6848006840F480706649086000BF67
:1010A00012E000206449086048608860C8604FF41E
:1010B000806008610846FFF7B1FCFFF7ABF8044613
:1010C00004B903E0781CC7B24A2FEADB00BF14B1B1
:1010D0002046BDE8F0874FF4D570574908600820D6
:1010E0004860402088600020C8604FF4806008613C
:1010F0000846FFF793FCFFF767F9044624B901207F
:101100004E4908704FF0804900204B490860372055
:101110004860402088600020C8604FF4806008610B
:101120000846FFF77BFC3720FFF78CF80446002CBD
:101130004CD135E00020404908603720486040200D
:1011400088600020C8604FF4806008610846FFF79F
:1011500065FC3720FFF776F804460CB12046B8E767
:10116000374849EA00003449086029204860402097
:1011700088600020C8604FF4806008610846FFF76F
:101180004DFCFFF7BBF804460CB12046A1E7294807
:1011900010300668012080EAD67080F001086D1CCE
:1011A000B8F1000F03D14FF6FF708542C2D34FF65E
:1011B000FF70854202D31B2420468AE706F0804058
:1011C000060033D002201D4908702FE01DE01D48A5
:1011D0001949086001204860402088600020C860EC
:1011E0004FF4806008610846FFF718FCFFF786F8A7
:1011F00004460CB120466CE70E481030066801200A
:1012000080EAD67080F001086D1CB8F1000F03D1A0
:101210004FF6FF708542DAD34FF6FF70854202D356
:101220001B24204655E7032004490870204650E758
:1012300068A90120042C014080A90120440000205D
:10124000000010800080FF8010B54FF48070FFF721
:1012500099FB78B34C480078012814D100204B4901
:1012600008600C204860402088600020C8604FF46F
:10127000806008610846FFF7D1FB0C20FEF7E2FF13
:101280004349087002E00020414908704148006865
:1012900040F480703F490860081D00684CF23A3104
:1012A00088433C49091D086001203B4908703848C3
:1012B000007810BDFFE70220FFF764FB78B1022041
:1012C000FFF736FB3348001D00684CF23A31884383
:1012D0003049091D086002202D490870E9E70820FF
:1012E000FFF750FB78B10820FFF722FB2948001DCB
:1012F00000684CF23A3188432649091D08600420F1
:1013000023490870D5E72020FFF73CFB78B1202067
:10131000FFF70EFB1F48001D00684CF23A3188436E
:101320001C49091D0860062019490870C1E71020F2
:10133000FFF728FB78B11020FFF7FAFA1548001DD7
:1013400000684CF23A3188431249091D08600520B3
:101350000F490870ADE74FF40070FFF713FB80B141
:101360004FF40070FFF7E4FA0A48001D00684CF2E1
:101370003A3188430749091D08600720044908706D
:1013800097E7002095E700004D00002080A901208C
:101390004E000020382C01404F00002010B50446BC
:1013A0000948046007200849486040208860002000
:1013B000C8604FF4806008610846FFF72FFB0720E4
:1013C000FEF740FF10BD000080A90120014600206B
:1013D000012900D011B9024B197000E02620704796
:1013E0004C000020704700000CB5002001900090D8
:1013F0003448006840F480303249086000BF31480A
:10140000006800F4003000900198401C01900098A2
:1014100018B90198B0F5A06FF1D12A48006800F41E
:10142000003010B10120009001E0002000900098F1
:10143000012846D123484030006840F080502149BF
:10144000403108602048006840F480401E49086030
:101450001C48083000681B490831086008460068CD
:1014600040F4004008600846006840F4A05008605E
:101470001648091F0860081F006840F08070091FA7
:10148000086000BF0F48006800F000700028F9D025
:1014900040F205600E4908600A480830006820F0F4
:1014A00003000849083108600846006840F002005F
:1014B000086000BF03480830006800F00C000828EE
:1014C000F8D10CBD003802400070004008544007BD
:1014D000003C0240042808D14FF0E021096941F0A6
:1014E00004014FF0E022116107E04FF0E0210969AB
:1014F00021F004014FF0E0221161704710B54FF464
:10150000A060FFF7FFF800F085FB00F03FF800F067
:10151000B5F800F01BF9002000F00CFD022000F0EF
:1015200009FD10BD10B51548006840F4700013495E
:1015300008601348006840F001001149086000206D
:101540000F49083108600E4800680E4908400C49F0
:1015500008600D48091D0860081F006820F48020FD
:10156000091F0860002006490C310860FFF73CFFA6
:101570004FF0006001498039086010BD88ED00E03F
:1015800000380240FFFFF6FE1030002400B587B09F
:1015900001210220FFF7C2F801211020FFF7DEF839
:1015A000072206212348FFF749F807221146214860
:1015B000FFF744F8C020019002208DF808000020B9
:1015C0008DF80A0002208DF8090000208DF80B002C
:1015D00001A91848FEF7EAFF4FF4E130039000201C
:1015E000ADF81000ADF81200ADF814000C20ADF805
:1015F00016000020ADF8180003A90F4800F098F974
:10160000012240F225510C4800F06CF901210A48F2
:1016100000F025F925208DF8000003208DF8010049
:101620008DF8020001208DF803006846FFF72EF8C0
:1016300007B000BD000402400010014010B540F2A8
:1016400025510B4800F024F988B140F22551084893
:1016500000F0F6F8064800F0D5F9064908700120B8
:1016600000F094FC0348017803A000F0D7F910BD06
:1016700000100140180000202563000000B587B06D
:1016800001210820FFF74AF801214804FFF756F826
:10169000072205212348FEF7D1FF07220621214812
:1016A000FEF7CCFF6020019002208DF8080000209A
:1016B0008DF80A0002208DF8090000208DF80B003B
:1016C00001A91848FEF772FF4FF4E13003900020A3
:1016D000ADF81000ADF81200ADF814000C20ADF814
:1016E00016000020ADF8180003A90F4800F020F9FB
:1016F000012240F225510C4800F0F4F801210A487B
:1017000000F0ADF826208DF8000003208DF80100D0
:101710008DF8020001208DF803006846FEF7B6FF41
:1017200007B000BD000C02400044004010B540F27C
:101730002551054800F0ACF820B140F2255102488F
:1017400000F07EF810BD00000044004000B587B0F6
:1017500001210220FEF7E2FF01218804FEF7EEFFDF
:1017600007220A212448FEF769FF07220B2122489D
:10177000FEF764FF4FF44060019002208DF80800EE
:1017800000208DF80A0002208DF8090000208DF855
:101790000B0001A91848FEF709FF4FF4E130039050
:1017A0000020ADF81000ADF81200ADF814000C20C8
:1017B000ADF816000020ADF8180003A90F4800F09E
:1017C000B7F8012240F225510C4800F08BF80121B6
:1017D0000A4800F044F827208DF8000003208DF817
:1017E000010002208DF8020001208DF803006846F8
:1017F000FEF74CFF07B000BD000402400048004067
:1018000010B540F225510B4800F042F888B140F283
:101810002551084800F014F8064800F0F3F806498E
:101820000870032000F0B2FB0348017803A000F029
:10183000F5F810BD004800401800002025630000A6
:1018400010B50022002340F66A14A14200D100BF67
:101850000A1201249440A3B2DC43048010BD21B1DC
:10186000828942F40052828104E082894DF6FF733E
:101870001A408281704702460020B1F5007F00D1F6
:1018800000BF13880B400BB1012000E0002070471F
:1018900070B50246002400230025002040F66A1699
:1018A000B14200D100BFC1F3421501F01F03012670
:1018B00006FA03F3012D02D19689334006E0022D8A
:1018C00002D1168A334001E0968A33400C12012679
:1018D00006FA04F41688344013B10CB1012000E07C
:1018E000002070BDF0B5034600240026002500202E
:1018F00040F66A17B94200D100BF1846C1F342143E
:1019000001F01F06012707FA06F5012C01D10C3062
:1019100004E0022C01D1103000E014301AB1076845
:101920002F43076002E00768AF430760F0BD000087
:101930002DE9FF4705460E460024A14600BFA046FC
:10194000B08900B100BF2C8A24F44054F0880443CD
:101950002C82AC8941F20C608443B0883189084301
:10196000718908430443AC81AC8A24F44074B08983
:101970000443AC826846FEF711FF2048854202D03E
:101980001F48854202D1DDF80C9001E0DDF8089097
:10199000A88900F4004040B109EBC90000EB091030
:1019A00031684900B0FBF1F707E009EBC90000EB33
:1019B000091031688900B0FBF1F76420B7FBF0F043
:1019C00004012009642101FB1078A88900F400407B
:1019D00040B1322000EBC800B0FBF1F000F007008E
:1019E000044308E0322000EB08106421B0FBF1F062
:1019F00000F00F0004432C81BDE8FF870010014078
:101A00000014014001468888C0F308007047C1F304
:101A100008028280704700BFFEE700000FB4054B4C
:101A200010B503A9044A029800F018F810BC5DF83C
:101A300014FB0000A51C00081C00002002E008C8E0
:101A4000121F08C1002AFAD170477047002001E038
:101A500001C1121F002AFBD1704700002DE9FF4F82
:101A60008BB09A460F460546002606E025280BD087
:101A700052460D9990476D1C761C28780028F5D1A8
:101A80000FB03046BDE8F08F0024A0460122604927
:101A900000E0044315F8013F203B02FA03F008423E
:101AA000F7D128782E2817D115F8010F44F0040437
:101AB0002A280ED06FF02F022878A0F130010929D2
:101AC0000AD808EB880102EB410100EB01086D1C0C
:101AD000F2E757F8048B6D1C287869283ED006DCA5
:101AE0000028CDD063280BD0642804D136E07328B9
:101AF00010D075284BD052460D999047761C85E042
:101B000017F8040B8DF8000000208DF80100E9465D
:101B1000012003E057F8049B4FF0FF3061074FF0BE
:101B2000000401D40AE0641C44450DDA8442FADB67
:101B300019F804100029F6D106E0641C8442FCDB8D
:101B400019F804100029F8D1264404E019F8010B13
:101B500052460D999047641EF8D257E001CF4FF0DE
:101B60000A0B002802DA40422D2102E0210504D5AB
:101B70002B218DF82410012103E0E10705D020215D
:101B8000F7E70DF1200908910CE00021F9E701CFFA
:101B90004FF00A0BF9E75946FEF712FB01F130024C
:101BA00009F8012D0028F6D1ADEB090000F1200B5A
:101BB000600701D44FF00108D84502DDA8EB0B0007
:101BC00000E000208046002406E009A85246005D9F
:101BD0000D999047641C761C08988442F5DB04E05C
:101BE000302052460D999047761CB8F10001A8F1BB
:101BF0000108F5DC05E019F8010B52460D999047F4
:101C0000761CBBF10001ABF1010BF4DC6D1C34E779
:101C10000928010010B56FF00400FFF75BFC0A48CB
:101C200000680A49B0FBF1F00949087008460078DD
:101C300000EB4001C1EBC0104FF6FF7101EAC0009C
:101C40000449088010BD00000000002000127A0046
:101C500014000020160000200146114A12884A4351
:101C60004FF0E0235A6100229A611A46126942F04D
:101C700001021A6100BF4FF0E022106900F001027A
:101C80001AB100F48032002AF5D04FF0E022126938
:101C900022F001024FF0E0231A6100229A6170479E
:101CA0001600002070B504460D461848007801283B
:101CB0000BD100BF40211648FFF7DDFD0028F9D009
:101CC000E1B21348FFF7A3FE1EE010480078022897
:101CD0000BD100BF40210F48FFF7CDFD0028F9D000
:101CE000E1B20C48FFF793FE0EE0084800780328A5
:101CF0000AD100BF40210848FFF7BDFD0028F9D0F8
:101D0000E1B20548FFF783FE204670BD19000020B0
:101D1000001001400044004000480040FFF7EEFB87
:101D200013E0022000F032F939A13DA0FFF776FE62
:101D30003220FFF791FF022000F028F939A138A0E6
:101D4000FFF76CFE3220FFF787FFFFF741F800280E
:101D5000E7D1384890F8560030B101280BD002285E
:101D600010D003281CD114E0022000F00FF932A09B
:101D7000FFF754FE14E0022000F008F934A0FFF74A
:101D80004DFE0DE0022000F001F937A0FFF746FEFE
:101D900006E0022000F0FAF839A0FFF73FFE00BF8E
:101DA00000BF3220FFF758FF022000F0EFF8214873
:101DB00090F82C1038A0FFF731FE3220FFF74CFFCF
:101DC000022000F0E3F81B48B0F8541039A0FFF7E8
:101DD00025FE3220FFF740FF022000F0D7F815481B
:101DE000D0E91220030343EA125136A0FFF716FE92
:101DF0003220FFF731FF022000F0C8F80D48016DD6
:101E000036A0FFF70BFE02E03220FFF725FFFBE7CD
:101E100053442043617264204572726F7221000046
:101E200025730000506C6561736520436865636BC2
:101E3000210D0A00D0A901204361726420547970F9
:101E4000653A534453432056312E310D0A000000A9
:101E50004361726420547970653A53445343205669
:101E6000322E300D0A0000004361726420547970F4
:101E7000653A534448432056322E300D0A00000084
:101E80004361726420547970653A4D4D432043613B
:101E900072640D0A0000000043617264204D616E9F
:101EA00075666163747572657249443A25640D0AFA
:101EB0000000000043617264205243413A25640DE2
:101EC0000A000000436172642043617061636974B9
:101ED000793A2564204D420D0A0000004361726486
:101EE00020426C6F636B53697A653A25640D0A0D65
:101EF0000A00000010B501460023002207E00B484D
:101F000050F8210030F8120000B15B1C521C084848
:101F100050F821009042F2D864205843044C54F801
:101F20002140B0FBF4F0C0B210BD0000340000202E
:101F3000981F000810B504460C4951F824104A00B7
:101F40000B4951F82400002100F016F8094951F816
:101F5000242007490C3951F82400002100F00CF826
:101F6000012103480C30015510BD0000981F0008E6
:101F700034000020B01F000830B5034601E003F82C
:101F8000011B1400A2F10102F9D130BD014A107009
:101F90007047000019000020800C000000190000AC
:101FA000800700002000000020000000200000004A
:101FB000009001000020030000F00000DC1F00087A
:101FC00000000020640000003C1A000840200008C7
:101FD00064000020C4AF01004C1A0008007A030A14
:101FE00000000000000000000102030406070809C9
:101FF000000000000000000000000000351F000885
:10200000F51E0008640000200000006800000010B9
:10201000649001200020036800F000100000000020
:1020200000000000000000000100000000000000AF
:10203000000000000102030401020304060708096E
:040000050800018965
:00000001FF
